:060000000A128A11EE2F26
:100F1A003F340634DB34CF346634ED34FD340734E1
:100F2A00FF34EF347E088A007F0882000A128A1191
:100F3A0097270A128A118000840A04087D06031979
:100F4A000034FF0A0319FE0A9B2F203084002C303C
:100F5A00F0000408F1000A30F200700884008313DC
:100F6A000008F300F00A7108840073088000F10A8F
:100F7A00F20BB22FFF308316031388008601831207
:100F8A000313AA01AB01FF308600E52F2A08203E91
:100F9A0084008313000986000130AA070318AB0AEC
:100FAA000030AB070A302A062B04031DDD2FDE2F83
:100FBA00E02FAA01AB0108080319E42FE52FE02F5F
:100FCA0008080319E92FEA2FCB2FE52F0A128A11F5
:100FDA00002883133630FD000730FE008D30FF00F5
:100FEA002C3084000A128A119B270A128A11830163
:060FFA000A128A11AA2F61
:08400000FF3FFF3FFF3FFF3FC0
:02400E00713F00
:00000001FF
