:060000000A128A110C280F
:10000800FE00030EF2000A08F3000A128A114328C0
:100018000A128A110F2883010A128A1113288316DB
:10002800031306140810881083120313081088108D
:100038000B168316031301178B17831203138810EB
:100048000230F6008630F5009930F400F40B2A28C7
:10005800F50B2A28F60B2A2883120313881402307A
:10006800F6008630F5009930F400F40B3928F50BCA
:100078003928F60B392821280A128A110C288B1CDA
:1000880046284728552883120313013088068230F2
:10009800F100DD30F000F00B4F28F10B4F28542809
:1000A8008B1073088A00720E8300FE0E7E0E090004
:08400000FF3FFF3FFF3FFF3FC0
:02400E00713F00
:00000001FF
