:060000000A128A11FC2F18
:100F1C008316031306108610061183120313061092
:100F2C00861006118312031306140230F2004530AA
:100F3C00F100A930F000F00BA12FF10BA12FF20B57
:100F4C00A12FA82F8312031306100230F200453094
:100F5C00F100A930F000F00BB12FF10BB12FF20B17
:100F6C00B12FB82F8312031386140230F2004530D0
:100F7C00F100A930F000F00BC12FF10BC12FF20BD7
:100F8C00C12FC82F8312031386100230F200453094
:100F9C00F100A930F000F00BD12FF10BD12FF20B97
:100FAC00D12FD82F8312031306150230F2004530CF
:100FBC00F100A930F000F00BE12FF10BE12FF20B57
:100FCC00E12FE82F8312031306110230F200453093
:100FDC00F100A930F000F00BF12FF10BF12FF20B17
:100FEC00F12FF82F982F0A128A11002883010A1268
:040FFC008A118E2F99
:08400000FF3FFF3FFF3FFF3FC0
:02400E00713F00
:00000001FF
